{
  "address": "0xaf759Af05f4a03B3ff42F86Be58C4CD651542242",
  "abi": [
    {
      "inputs": [
        {
          "internalType": "contract IERC20",
          "name": "tokenContract",
          "type": "address"
        },
        {
          "internalType": "address",
          "name": "signerAddress",
          "type": "address"
        },
        {
          "internalType": "address",
          "name": "treasuryAddress",
          "type": "address"
        }
      ],
      "stateMutability": "nonpayable",
      "type": "constructor"
    },
    {
      "anonymous": false,
      "inputs": [
        {
          "indexed": true,
          "internalType": "address",
          "name": "walletAddress",
          "type": "address"
        },
        {
          "indexed": false,
          "internalType": "uint256",
          "name": "amount",
          "type": "uint256"
        }
      ],
      "name": "Deposited",
      "type": "event"
    },
    {
      "anonymous": false,
      "inputs": [
        {
          "indexed": true,
          "internalType": "address",
          "name": "previousOwner",
          "type": "address"
        },
        {
          "indexed": true,
          "internalType": "address",
          "name": "newOwner",
          "type": "address"
        }
      ],
      "name": "OwnershipTransferred",
      "type": "event"
    },
    {
      "anonymous": false,
      "inputs": [
        {
          "indexed": true,
          "internalType": "address",
          "name": "walletAddress",
          "type": "address"
        },
        {
          "indexed": false,
          "internalType": "uint256",
          "name": "amount",
          "type": "uint256"
        },
        {
          "indexed": false,
          "internalType": "uint256",
          "name": "fee",
          "type": "uint256"
        },
        {
          "indexed": false,
          "internalType": "uint256",
          "name": "nonce",
          "type": "uint256"
        }
      ],
      "name": "Withdrawn",
      "type": "event"
    },
    {
      "inputs": [
        {
          "internalType": "uint256",
          "name": "amount",
          "type": "uint256"
        }
      ],
      "name": "deposit",
      "outputs": [],
      "stateMutability": "nonpayable",
      "type": "function"
    },
    {
      "inputs": [
        {
          "internalType": "uint256",
          "name": "",
          "type": "uint256"
        }
      ],
      "name": "isNonceUsed",
      "outputs": [
        {
          "internalType": "bool",
          "name": "",
          "type": "bool"
        }
      ],
      "stateMutability": "view",
      "type": "function"
    },
    {
      "inputs": [],
      "name": "owner",
      "outputs": [
        {
          "internalType": "address",
          "name": "",
          "type": "address"
        }
      ],
      "stateMutability": "view",
      "type": "function"
    },
    {
      "inputs": [],
      "name": "renounceOwnership",
      "outputs": [],
      "stateMutability": "nonpayable",
      "type": "function"
    },
    {
      "inputs": [
        {
          "internalType": "address",
          "name": "newSigner",
          "type": "address"
        }
      ],
      "name": "setSigner",
      "outputs": [],
      "stateMutability": "nonpayable",
      "type": "function"
    },
    {
      "inputs": [
        {
          "internalType": "address",
          "name": "newTreasury",
          "type": "address"
        }
      ],
      "name": "setTreasury",
      "outputs": [],
      "stateMutability": "nonpayable",
      "type": "function"
    },
    {
      "inputs": [],
      "name": "signer",
      "outputs": [
        {
          "internalType": "address",
          "name": "",
          "type": "address"
        }
      ],
      "stateMutability": "view",
      "type": "function"
    },
    {
      "inputs": [],
      "name": "token",
      "outputs": [
        {
          "internalType": "contract IERC20",
          "name": "",
          "type": "address"
        }
      ],
      "stateMutability": "view",
      "type": "function"
    },
    {
      "inputs": [
        {
          "internalType": "address",
          "name": "newOwner",
          "type": "address"
        }
      ],
      "name": "transferOwnership",
      "outputs": [],
      "stateMutability": "nonpayable",
      "type": "function"
    },
    {
      "inputs": [],
      "name": "treasury",
      "outputs": [
        {
          "internalType": "address",
          "name": "",
          "type": "address"
        }
      ],
      "stateMutability": "view",
      "type": "function"
    },
    {
      "inputs": [
        {
          "internalType": "address",
          "name": "walletAddress",
          "type": "address"
        },
        {
          "internalType": "uint256",
          "name": "amount",
          "type": "uint256"
        },
        {
          "internalType": "uint256",
          "name": "fee",
          "type": "uint256"
        },
        {
          "internalType": "uint256",
          "name": "nonce",
          "type": "uint256"
        },
        {
          "internalType": "bytes",
          "name": "signature",
          "type": "bytes"
        }
      ],
      "name": "withdraw",
      "outputs": [],
      "stateMutability": "nonpayable",
      "type": "function"
    }
  ],
  "transactionHash": "0x55d16e797ed344c6a87e86da3836bfd1ace284d6530fa047cb7c0c7d4471d0d6",
  "args": [
    "0x201bC9F242f74C47Bbd898a5DC99cDCD81A21943",
    "0xade61fa4b2e1ce86cb72a864cc12b610210be79c",
    "0x3e26124f918aaa57b41846f76c094e35c1e6697f"
  ],
  "numDeployments": 2,
  "solcInputHash": "cbe637242268f5d6ead0d94f7692dcc1",
  "bytecode": "0x61014060405234801561001157600080fd5b5060405161106b38038061106b833981016040819052610030916101ab565b60405180604001604052806008815260200167496775766572736560c01b815250604051806040016040528060018152602001603160f81b81525061008161007c61015760201b60201c565b61015b565b815160208084019190912082518383012060e08290526101008190524660a0818152604080517f8b73c3c69bb8fe3d512ecc4cf759cc79239f7b179b0ffacaa9a75d522b39400f81880181905281830187905260608201869052608082019490945230818401528151808203909301835260c00190528051940193909320919290916080523060601b60c052610120525050600180546001600160a01b039687166001600160a01b0319918216179091556002805495871695821695909517909455505060038054919093169116179055610210565b3390565b600080546001600160a01b038381166001600160a01b0319831681178455604051919092169283917f8be0079c531659141344cd1fd0a4f28419497f9722a3daafe3b4186f6b6457e09190a35050565b6000806000606084860312156101c057600080fd5b83516101cb816101f8565b60208501519093506101dc816101f8565b60408501519092506101ed816101f8565b809150509250925092565b6001600160a01b038116811461020d57600080fd5b50565b60805160a05160c05160601c60e0516101005161012051610e0961026260003960006107fd0152600061084c0152600061082701526000610780015260006107aa015260006107d40152610e096000f3fe608060405234801561001057600080fd5b50600436106100995760003560e01c8063238ac9331461009e5780635d00bb12146100ce57806361d027b3146101015780636c19e78314610114578063715018a6146101295780638da5cb5b14610131578063b6b55f2514610139578063ddf1858a1461014c578063f0f442601461015f578063f2fde38b14610172578063fc0c546a14610185575b600080fd5b6002546100b1906001600160a01b031681565b6040516001600160a01b0390911681526020015b60405180910390f35b6100f16100dc366004610d1a565b60046020526000908152604090205460ff1681565b60405190151581526020016100c5565b6003546100b1906001600160a01b031681565b610127610122366004610bf8565b610198565b005b6101276101f2565b6100b161022d565b610127610147366004610d1a565b61023c565b61012761015a366004610c1a565b6102ff565b61012761016d366004610bf8565b6105ba565b610127610180366004610bf8565b61060b565b6001546100b1906001600160a01b031681565b336101a161022d565b6001600160a01b0316146101d05760405162461bcd60e51b81526004016101c790610d4c565b60405180910390fd5b600280546001600160a01b0319166001600160a01b0392909216919091179055565b336101fb61022d565b6001600160a01b0316146102215760405162461bcd60e51b81526004016101c790610d4c565b61022b60006106ab565b565b6000546001600160a01b031690565b6001546040516323b872dd60e01b8152336004820152306024820152604481018390526001600160a01b03909116906323b872dd90606401602060405180830381600087803b15801561028e57600080fd5b505af11580156102a2573d6000803e3d6000fd5b505050506040513d601f19601f820116820180604052508101906102c69190610cf8565b5060405181815233907f2da466a7b24304f47e87fa2e1e5a81b9831ce54fec19055ce277ca2f39ba42c49060200160405180910390a250565b60008281526004602052604090205460ff161561035e5760405162461bcd60e51b815260206004820152601d60248201527f49677557616c6c65743a204e6f6e636520616c7265616479207573656400000060448201526064016101c7565b6000828152600460209081526040808320805460ff1916600117905580517fd1089c928675faf8b8480bd7603b4fb4b3e10844834dc008a1fbc8008e9d9f84928101929092526001600160a01b03881690820152606081018690526080810185905260a081018490526103e99060c001604051602081830303815290604052805190602001206106fb565b6002549091506001600160a01b0316610402828461074f565b6001600160a01b0316146104585760405162461bcd60e51b815260206004820152601d60248201527f49677557616c6c65743a205369676e6174757265204d69736d6174636800000060448201526064016101c7565b60015460405163a9059cbb60e01b81526001600160a01b039091169063a9059cbb9061048a9089908990600401610d33565b602060405180830381600087803b1580156104a457600080fd5b505af11580156104b8573d6000803e3d6000fd5b505050506040513d601f19601f820116820180604052508101906104dc9190610cf8565b5060015460035460405163a9059cbb60e01b81526001600160a01b039283169263a9059cbb92610513929116908890600401610d33565b602060405180830381600087803b15801561052d57600080fd5b505af1158015610541573d6000803e3d6000fd5b505050506040513d601f19601f820116820180604052508101906105659190610cf8565b5060408051868152602081018690529081018490526001600160a01b038716907f75e161b3e824b114fc1a33274bd7091918dd4e639cede50b78b15a4eea956a219060600160405180910390a2505050505050565b336105c361022d565b6001600160a01b0316146105e95760405162461bcd60e51b81526004016101c790610d4c565b600380546001600160a01b0319166001600160a01b0392909216919091179055565b3361061461022d565b6001600160a01b03161461063a5760405162461bcd60e51b81526004016101c790610d4c565b6001600160a01b03811661069f5760405162461bcd60e51b815260206004820152602660248201527f4f776e61626c653a206e6577206f776e657220697320746865207a65726f206160448201526564647265737360d01b60648201526084016101c7565b6106a8816106ab565b50565b600080546001600160a01b038381166001600160a01b0319831681178455604051919092169283917f8be0079c531659141344cd1fd0a4f28419497f9722a3daafe3b4186f6b6457e09190a35050565b6000610749610708610773565b8360405161190160f01b6020820152602281018390526042810182905260009060620160405160208183030381529060405280519060200120905092915050565b92915050565b600080600061075e858561089a565b9150915061076b8161090a565b509392505050565b6000306001600160a01b037f0000000000000000000000000000000000000000000000000000000000000000161480156107cc57507f000000000000000000000000000000000000000000000000000000000000000046145b156107f657507f000000000000000000000000000000000000000000000000000000000000000090565b50604080517f00000000000000000000000000000000000000000000000000000000000000006020808301919091527f0000000000000000000000000000000000000000000000000000000000000000828401527f000000000000000000000000000000000000000000000000000000000000000060608301524660808301523060a0808401919091528351808403909101815260c0909201909252805191012090565b6000808251604114156108d15760208301516040840151606085015160001a6108c587828585610ac0565b94509450505050610903565b8251604014156108fb57602083015160408401516108f0868383610ba3565b935093505050610903565b506000905060025b9250929050565b600081600481111561091e5761091e610da7565b14156109275750565b600181600481111561093b5761093b610da7565b14156109845760405162461bcd60e51b815260206004820152601860248201527745434453413a20696e76616c6964207369676e617475726560401b60448201526064016101c7565b600281600481111561099857610998610da7565b14156109e65760405162461bcd60e51b815260206004820152601f60248201527f45434453413a20696e76616c6964207369676e6174757265206c656e6774680060448201526064016101c7565b60038160048111156109fa576109fa610da7565b1415610a535760405162461bcd60e51b815260206004820152602260248201527f45434453413a20696e76616c6964207369676e6174757265202773272076616c604482015261756560f01b60648201526084016101c7565b6004816004811115610a6757610a67610da7565b14156106a85760405162461bcd60e51b815260206004820152602260248201527f45434453413a20696e76616c6964207369676e6174757265202776272076616c604482015261756560f01b60648201526084016101c7565b6000806fa2a8918ca85bafe22016d0b997e4df60600160ff1b03831115610aed5750600090506003610b9a565b8460ff16601b14158015610b0557508460ff16601c14155b15610b165750600090506004610b9a565b6040805160008082526020820180845289905260ff881692820192909252606081018690526080810185905260019060a0016020604051602081039080840390855afa158015610b6a573d6000803e3d6000fd5b5050604051601f1901519150506001600160a01b038116610b9357600060019250925050610b9a565b9150600090505b94509492505050565b6000806001600160ff1b03831681610bc060ff86901c601b610d81565b9050610bce87828885610ac0565b935093505050935093915050565b80356001600160a01b0381168114610bf357600080fd5b919050565b600060208284031215610c0a57600080fd5b610c1382610bdc565b9392505050565b600080600080600060a08688031215610c3257600080fd5b610c3b86610bdc565b945060208601359350604086013592506060860135915060808601356001600160401b0380821115610c6c57600080fd5b818801915088601f830112610c8057600080fd5b813581811115610c9257610c92610dbd565b604051601f8201601f19908116603f01168101908382118183101715610cba57610cba610dbd565b816040528281528b6020848701011115610cd357600080fd5b8260208601602083013760006020848301015280955050505050509295509295909350565b600060208284031215610d0a57600080fd5b81518015158114610c1357600080fd5b600060208284031215610d2c57600080fd5b5035919050565b6001600160a01b03929092168252602082015260400190565b6020808252818101527f4f776e61626c653a2063616c6c6572206973206e6f7420746865206f776e6572604082015260600190565b60008219821115610da257634e487b7160e01b600052601160045260246000fd5b500190565b634e487b7160e01b600052602160045260246000fd5b634e487b7160e01b600052604160045260246000fdfea26469706673582212202442a614fc7db426c935be015bf0ed10aa7ba5b3f57b458b079c10a5d722861c64736f6c63430008070033",
  "devdoc": {
    "kind": "dev",
    "methods": {
      "owner()": {
        "details": "Returns the address of the current owner."
      },
      "renounceOwnership()": {
        "details": "Leaves the contract without owner. It will not be possible to call `onlyOwner` functions anymore. Can only be called by the current owner. NOTE: Renouncing ownership will leave the contract without an owner, thereby removing any functionality that is only available to the owner."
      },
      "transferOwnership(address)": {
        "details": "Transfers ownership of the contract to a new account (`newOwner`). Can only be called by the current owner."
      }
    },
    "version": 1
  },
  "userdoc": {
    "kind": "user",
    "methods": {},
    "version": 1
  },
  "storageLayout": {
    "storage": [
      {
        "astId": 161,
        "contract": "contracts/wallet/IguWallet.sol:IguWallet",
        "label": "_owner",
        "offset": 0,
        "slot": "0",
        "type": "t_address"
      },
      {
        "astId": 15290,
        "contract": "contracts/wallet/IguWallet.sol:IguWallet",
        "label": "token",
        "offset": 0,
        "slot": "1",
        "type": "t_contract(IERC20)962"
      },
      {
        "astId": 15292,
        "contract": "contracts/wallet/IguWallet.sol:IguWallet",
        "label": "signer",
        "offset": 0,
        "slot": "2",
        "type": "t_address"
      },
      {
        "astId": 15294,
        "contract": "contracts/wallet/IguWallet.sol:IguWallet",
        "label": "treasury",
        "offset": 0,
        "slot": "3",
        "type": "t_address"
      },
      {
        "astId": 15298,
        "contract": "contracts/wallet/IguWallet.sol:IguWallet",
        "label": "isNonceUsed",
        "offset": 0,
        "slot": "4",
        "type": "t_mapping(t_uint256,t_bool)"
      }
    ],
    "types": {
      "t_address": {
        "encoding": "inplace",
        "label": "address",
        "numberOfBytes": "20"
      },
      "t_bool": {
        "encoding": "inplace",
        "label": "bool",
        "numberOfBytes": "1"
      },
      "t_contract(IERC20)962": {
        "encoding": "inplace",
        "label": "contract IERC20",
        "numberOfBytes": "20"
      },
      "t_mapping(t_uint256,t_bool)": {
        "encoding": "mapping",
        "key": "t_uint256",
        "label": "mapping(uint256 => bool)",
        "numberOfBytes": "32",
        "value": "t_bool"
      },
      "t_uint256": {
        "encoding": "inplace",
        "label": "uint256",
        "numberOfBytes": "32"
      }
    }
  }
}