{
  "address": "0x4C63e0d152aC4149E0d501ace532a12B0f553416",
  "abi": [
    {
      "inputs": [
        {
          "internalType": "contract IERC20",
          "name": "tokenContract",
          "type": "address"
        },
        {
          "internalType": "address",
          "name": "signerAddress",
          "type": "address"
        },
        {
          "internalType": "address",
          "name": "treasuryAddress",
          "type": "address"
        }
      ],
      "stateMutability": "nonpayable",
      "type": "constructor"
    },
    {
      "anonymous": false,
      "inputs": [
        {
          "indexed": true,
          "internalType": "address",
          "name": "walletAddress",
          "type": "address"
        },
        {
          "indexed": false,
          "internalType": "uint256",
          "name": "amount",
          "type": "uint256"
        }
      ],
      "name": "Deposited",
      "type": "event"
    },
    {
      "anonymous": false,
      "inputs": [
        {
          "indexed": true,
          "internalType": "address",
          "name": "previousOwner",
          "type": "address"
        },
        {
          "indexed": true,
          "internalType": "address",
          "name": "newOwner",
          "type": "address"
        }
      ],
      "name": "OwnershipTransferred",
      "type": "event"
    },
    {
      "anonymous": false,
      "inputs": [
        {
          "indexed": true,
          "internalType": "address",
          "name": "walletAddress",
          "type": "address"
        },
        {
          "indexed": false,
          "internalType": "uint256",
          "name": "amount",
          "type": "uint256"
        },
        {
          "indexed": false,
          "internalType": "uint256",
          "name": "fee",
          "type": "uint256"
        },
        {
          "indexed": false,
          "internalType": "uint256",
          "name": "nonce",
          "type": "uint256"
        }
      ],
      "name": "Withdrawn",
      "type": "event"
    },
    {
      "inputs": [
        {
          "internalType": "uint256",
          "name": "amount",
          "type": "uint256"
        }
      ],
      "name": "deposit",
      "outputs": [],
      "stateMutability": "nonpayable",
      "type": "function"
    },
    {
      "inputs": [
        {
          "internalType": "uint256",
          "name": "",
          "type": "uint256"
        }
      ],
      "name": "isNonceUsed",
      "outputs": [
        {
          "internalType": "bool",
          "name": "",
          "type": "bool"
        }
      ],
      "stateMutability": "view",
      "type": "function"
    },
    {
      "inputs": [],
      "name": "owner",
      "outputs": [
        {
          "internalType": "address",
          "name": "",
          "type": "address"
        }
      ],
      "stateMutability": "view",
      "type": "function"
    },
    {
      "inputs": [],
      "name": "renounceOwnership",
      "outputs": [],
      "stateMutability": "nonpayable",
      "type": "function"
    },
    {
      "inputs": [
        {
          "internalType": "address",
          "name": "newSigner",
          "type": "address"
        }
      ],
      "name": "setSigner",
      "outputs": [],
      "stateMutability": "nonpayable",
      "type": "function"
    },
    {
      "inputs": [
        {
          "internalType": "address",
          "name": "newTreasury",
          "type": "address"
        }
      ],
      "name": "setTreasury",
      "outputs": [],
      "stateMutability": "nonpayable",
      "type": "function"
    },
    {
      "inputs": [],
      "name": "signer",
      "outputs": [
        {
          "internalType": "address",
          "name": "",
          "type": "address"
        }
      ],
      "stateMutability": "view",
      "type": "function"
    },
    {
      "inputs": [],
      "name": "token",
      "outputs": [
        {
          "internalType": "contract IERC20",
          "name": "",
          "type": "address"
        }
      ],
      "stateMutability": "view",
      "type": "function"
    },
    {
      "inputs": [
        {
          "internalType": "address",
          "name": "newOwner",
          "type": "address"
        }
      ],
      "name": "transferOwnership",
      "outputs": [],
      "stateMutability": "nonpayable",
      "type": "function"
    },
    {
      "inputs": [],
      "name": "treasury",
      "outputs": [
        {
          "internalType": "address",
          "name": "",
          "type": "address"
        }
      ],
      "stateMutability": "view",
      "type": "function"
    },
    {
      "inputs": [
        {
          "internalType": "address",
          "name": "walletAddress",
          "type": "address"
        },
        {
          "internalType": "uint256",
          "name": "amount",
          "type": "uint256"
        },
        {
          "internalType": "uint256",
          "name": "fee",
          "type": "uint256"
        },
        {
          "internalType": "uint256",
          "name": "nonce",
          "type": "uint256"
        },
        {
          "internalType": "uint256",
          "name": "deadline",
          "type": "uint256"
        },
        {
          "internalType": "bytes",
          "name": "signature",
          "type": "bytes"
        }
      ],
      "name": "withdraw",
      "outputs": [],
      "stateMutability": "nonpayable",
      "type": "function"
    }
  ],
  "transactionHash": "0xfb3416bb4de8100c067329246a0770f31ae5138606b411a2d6d933c35ad7b844",
  "args": [
    "0x201bC9F242f74C47Bbd898a5DC99cDCD81A21943",
    "0xade61fa4b2e1ce86cb72a864cc12b610210be79c",
    "0x3e26124f918aaa57b41846f76c094e35c1e6697f"
  ],
  "numDeployments": 3,
  "solcInputHash": "b1c13b2f5437cbf292e787e7afaa1ad2",
  "bytecode": "0x61014060405234801561001157600080fd5b50604051610f35380380610f35833981016040819052610030916101ab565b60405180604001604052806008815260200167496775766572736560c01b815250604051806040016040528060018152602001603160f81b81525061008161007c61015760201b60201c565b61015b565b815160208084019190912082518383012060e08290526101008190524660a0818152604080517f8b73c3c69bb8fe3d512ecc4cf759cc79239f7b179b0ffacaa9a75d522b39400f81880181905281830187905260608201869052608082019490945230818401528151808203909301835260c00190528051940193909320919290916080523060601b60c052610120525050600180546001600160a01b039687166001600160a01b0319918216179091556002805495871695821695909517909455505060038054919093169116179055610210565b3390565b600080546001600160a01b038381166001600160a01b0319831681178455604051919092169283917f8be0079c531659141344cd1fd0a4f28419497f9722a3daafe3b4186f6b6457e09190a35050565b6000806000606084860312156101c057600080fd5b83516101cb816101f8565b60208501519093506101dc816101f8565b60408501519092506101ed816101f8565b809150509250925092565b6001600160a01b038116811461020d57600080fd5b50565b60805160a05160c05160601c60e0516101005161012051610cd36102626000396000610813015260006108620152600061083d01526000610796015260006107c0015260006107ea0152610cd36000f3fe608060405234801561001057600080fd5b50600436106100995760003560e01c8063238ac9331461009e5780635d00bb12146100ce57806361d027b31461010157806365279c6b146101145780636c19e78314610129578063715018a61461013c5780638da5cb5b14610144578063b6b55f251461014c578063f0f442601461015f578063f2fde38b14610172578063fc0c546a14610185575b600080fd5b6002546100b1906001600160a01b031681565b6040516001600160a01b0390911681526020015b60405180910390f35b6100f16100dc366004610c3f565b60046020526000908152604090205460ff1681565b60405190151581526020016100c5565b6003546100b1906001600160a01b031681565b610127610122366004610b37565b610198565b005b610127610137366004610b15565b6104af565b6101276104d9565b6100b16104ed565b61012761015a366004610c3f565b6104fc565b61012761016d366004610b15565b6105bf565b610127610180366004610b15565b6105e9565b6001546100b1906001600160a01b031681565b60008381526004602052604090205460ff16156101fc5760405162461bcd60e51b815260206004820152601d60248201527f49677557616c6c65743a204e6f6e636520616c7265616479207573656400000060448201526064015b60405180910390fd5b42821161024b5760405162461bcd60e51b815260206004820152601e60248201527f49677557616c6c65743a205472616e73616374696f6e206f766572647565000060448201526064016101f3565b6000838152600460209081526040808320805460ff1916600117905580517fea2890f0b196c337a9bb803cd7cc3ff26a08144baa60e8dc513b77382ed3140a928101929092526001600160a01b03891690820152606081018790526080810186905260a0810185905260c081018490526102dd9060e00160405160208183030381529060405280519060200120610662565b6002549091506001600160a01b03166102f682846106b6565b6001600160a01b03161461034c5760405162461bcd60e51b815260206004820152601d60248201527f49677557616c6c65743a205369676e6174757265204d69736d6174636800000060448201526064016101f3565b60015460405163a9059cbb60e01b81526001600160a01b039091169063a9059cbb9061037e908a908a90600401610c58565b602060405180830381600087803b15801561039857600080fd5b505af11580156103ac573d6000803e3d6000fd5b505050506040513d601f19601f820116820180604052508101906103d09190610c1d565b5060015460035460405163a9059cbb60e01b81526001600160a01b039283169263a9059cbb92610407929116908990600401610c58565b602060405180830381600087803b15801561042157600080fd5b505af1158015610435573d6000803e3d6000fd5b505050506040513d601f19601f820116820180604052508101906104599190610c1d565b5060408051878152602081018790529081018590526001600160a01b038816907f75e161b3e824b114fc1a33274bd7091918dd4e639cede50b78b15a4eea956a219060600160405180910390a250505050505050565b6104b76106da565b600280546001600160a01b0319166001600160a01b0392909216919091179055565b6104e16106da565b6104eb6000610739565b565b6000546001600160a01b031690565b6001546040516323b872dd60e01b8152336004820152306024820152604481018390526001600160a01b03909116906323b872dd90606401602060405180830381600087803b15801561054e57600080fd5b505af1158015610562573d6000803e3d6000fd5b505050506040513d601f19601f820116820180604052508101906105869190610c1d565b5060405181815233907f2da466a7b24304f47e87fa2e1e5a81b9831ce54fec19055ce277ca2f39ba42c49060200160405180910390a250565b6105c76106da565b600380546001600160a01b0319166001600160a01b0392909216919091179055565b6105f16106da565b6001600160a01b0381166106565760405162461bcd60e51b815260206004820152602660248201527f4f776e61626c653a206e6577206f776e657220697320746865207a65726f206160448201526564647265737360d01b60648201526084016101f3565b61065f81610739565b50565b60006106b061066f610789565b8360405161190160f01b6020820152602281018390526042810182905260009060620160405160208183030381529060405280519060200120905092915050565b92915050565b60008060006106c585856108b0565b915091506106d2816108f6565b509392505050565b336106e36104ed565b6001600160a01b0316146104eb5760405162461bcd60e51b815260206004820181905260248201527f4f776e61626c653a2063616c6c6572206973206e6f7420746865206f776e657260448201526064016101f3565b600080546001600160a01b038381166001600160a01b0319831681178455604051919092169283917f8be0079c531659141344cd1fd0a4f28419497f9722a3daafe3b4186f6b6457e09190a35050565b6000306001600160a01b037f0000000000000000000000000000000000000000000000000000000000000000161480156107e257507f000000000000000000000000000000000000000000000000000000000000000046145b1561080c57507f000000000000000000000000000000000000000000000000000000000000000090565b50604080517f00000000000000000000000000000000000000000000000000000000000000006020808301919091527f0000000000000000000000000000000000000000000000000000000000000000828401527f000000000000000000000000000000000000000000000000000000000000000060608301524660808301523060a0808401919091528351808403909101815260c0909201909252805191012090565b6000808251604114156108e75760208301516040840151606085015160001a6108db87828585610a3f565b945094505050506108ef565b506000905060025b9250929050565b600081600481111561090a5761090a610c71565b14156109135750565b600181600481111561092757610927610c71565b14156109705760405162461bcd60e51b815260206004820152601860248201527745434453413a20696e76616c6964207369676e617475726560401b60448201526064016101f3565b600281600481111561098457610984610c71565b14156109d25760405162461bcd60e51b815260206004820152601f60248201527f45434453413a20696e76616c6964207369676e6174757265206c656e6774680060448201526064016101f3565b60038160048111156109e6576109e6610c71565b141561065f5760405162461bcd60e51b815260206004820152602260248201527f45434453413a20696e76616c6964207369676e6174757265202773272076616c604482015261756560f01b60648201526084016101f3565b6000806fa2a8918ca85bafe22016d0b997e4df60600160ff1b03831115610a6c5750600090506003610af0565b6040805160008082526020820180845289905260ff881692820192909252606081018690526080810185905260019060a0016020604051602081039080840390855afa158015610ac0573d6000803e3d6000fd5b5050604051601f1901519150506001600160a01b038116610ae957600060019250925050610af0565b9150600090505b94509492505050565b80356001600160a01b0381168114610b1057600080fd5b919050565b600060208284031215610b2757600080fd5b610b3082610af9565b9392505050565b60008060008060008060c08789031215610b5057600080fd5b610b5987610af9565b95506020870135945060408701359350606087013592506080870135915060a08701356001600160401b0380821115610b9157600080fd5b818901915089601f830112610ba557600080fd5b813581811115610bb757610bb7610c87565b604051601f8201601f19908116603f01168101908382118183101715610bdf57610bdf610c87565b816040528281528c6020848701011115610bf857600080fd5b8260208601602083013760006020848301015280955050505050509295509295509295565b600060208284031215610c2f57600080fd5b81518015158114610b3057600080fd5b600060208284031215610c5157600080fd5b5035919050565b6001600160a01b03929092168252602082015260400190565b634e487b7160e01b600052602160045260246000fd5b634e487b7160e01b600052604160045260246000fdfea2646970667358221220e5a4e612872e97829e6926ab421673b7a959bb49b79843de40fc7daf9551707064736f6c63430008070033",
  "devdoc": {
    "kind": "dev",
    "methods": {
      "owner()": {
        "details": "Returns the address of the current owner."
      },
      "renounceOwnership()": {
        "details": "Leaves the contract without owner. It will not be possible to call `onlyOwner` functions anymore. Can only be called by the current owner. NOTE: Renouncing ownership will leave the contract without an owner, thereby removing any functionality that is only available to the owner."
      },
      "transferOwnership(address)": {
        "details": "Transfers ownership of the contract to a new account (`newOwner`). Can only be called by the current owner."
      }
    },
    "version": 1
  },
  "userdoc": {
    "kind": "user",
    "methods": {},
    "version": 1
  },
  "storageLayout": {
    "storage": [
      {
        "astId": 7,
        "contract": "contracts/wallet/IguWallet.sol:IguWallet",
        "label": "_owner",
        "offset": 0,
        "slot": "0",
        "type": "t_address"
      },
      {
        "astId": 1799,
        "contract": "contracts/wallet/IguWallet.sol:IguWallet",
        "label": "token",
        "offset": 0,
        "slot": "1",
        "type": "t_contract(IERC20)190"
      },
      {
        "astId": 1801,
        "contract": "contracts/wallet/IguWallet.sol:IguWallet",
        "label": "signer",
        "offset": 0,
        "slot": "2",
        "type": "t_address"
      },
      {
        "astId": 1803,
        "contract": "contracts/wallet/IguWallet.sol:IguWallet",
        "label": "treasury",
        "offset": 0,
        "slot": "3",
        "type": "t_address"
      },
      {
        "astId": 1807,
        "contract": "contracts/wallet/IguWallet.sol:IguWallet",
        "label": "isNonceUsed",
        "offset": 0,
        "slot": "4",
        "type": "t_mapping(t_uint256,t_bool)"
      }
    ],
    "types": {
      "t_address": {
        "encoding": "inplace",
        "label": "address",
        "numberOfBytes": "20"
      },
      "t_bool": {
        "encoding": "inplace",
        "label": "bool",
        "numberOfBytes": "1"
      },
      "t_contract(IERC20)190": {
        "encoding": "inplace",
        "label": "contract IERC20",
        "numberOfBytes": "20"
      },
      "t_mapping(t_uint256,t_bool)": {
        "encoding": "mapping",
        "key": "t_uint256",
        "label": "mapping(uint256 => bool)",
        "numberOfBytes": "32",
        "value": "t_bool"
      },
      "t_uint256": {
        "encoding": "inplace",
        "label": "uint256",
        "numberOfBytes": "32"
      }
    }
  }
}